{
  "contractName": "Product_Exist",
  "abi": [
    {
      "inputs": [
        {
          "components": [
            {
              "internalType": "string",
              "name": "name",
              "type": "string"
            },
            {
              "internalType": "uint256",
              "name": "manufacturingDate",
              "type": "uint256"
            },
            {
              "internalType": "uint256",
              "name": "transferDate",
              "type": "uint256"
            },
            {
              "internalType": "string",
              "name": "currentOwner",
              "type": "string"
            },
            {
              "internalType": "string",
              "name": "licnseNumber",
              "type": "string"
            },
            {
              "internalType": "address",
              "name": "currentOwnerHash",
              "type": "address"
            },
            {
              "internalType": "bool",
              "name": "isVerified",
              "type": "bool"
            },
            {
              "internalType": "bool",
              "name": "isPurchased",
              "type": "bool"
            },
            {
              "internalType": "string",
              "name": "qrCode",
              "type": "string"
            }
          ],
          "internalType": "struct Product_Lib.Product[]",
          "name": "product",
          "type": "tuple[]"
        }
      ],
      "name": "checkSerialNumber",
      "outputs": [],
      "stateMutability": "pure",
      "type": "function"
    }
  ],
  "bytecode": "0x608060405234801561001057600080fd5b506105f5806100206000396000f3fe608060405234801561001057600080fd5b506004361061002b5760003560e01c80637c5df1cc14610030575b600080fd5b61004a600480360381019061004591906104f9565b61004c565b005b6000815114610090576040517f08c379a00000000000000000000000000000000000000000000000000000000081526004016100879061059f565b60405180910390fd5b50565b6000604051905090565b600080fd5b600080fd5b600080fd5b6000601f19601f8301169050919050565b7f4e487b7100000000000000000000000000000000000000000000000000000000600052604160045260246000fd5b6100f5826100ac565b810181811067ffffffffffffffff82111715610114576101136100bd565b5b80604052505050565b6000610127610093565b905061013382826100ec565b919050565b600067ffffffffffffffff821115610153576101526100bd565b5b602082029050602081019050919050565b600080fd5b600080fd5b600080fd5b600080fd5b600067ffffffffffffffff821115610193576101926100bd565b5b61019c826100ac565b9050602081019050919050565b82818337600083830152505050565b60006101cb6101c684610178565b61011d565b9050828152602081018484840111156101e7576101e6610173565b5b6101f28482856101a9565b509392505050565b600082601f83011261020f5761020e6100a7565b5b813561021f8482602086016101b8565b91505092915050565b6000819050919050565b61023b81610228565b811461024657600080fd5b50565b60008135905061025881610232565b92915050565b600073ffffffffffffffffffffffffffffffffffffffff82169050919050565b60006102898261025e565b9050919050565b6102998161027e565b81146102a457600080fd5b50565b6000813590506102b681610290565b92915050565b60008115159050919050565b6102d1816102bc565b81146102dc57600080fd5b50565b6000813590506102ee816102c8565b92915050565b6000610120828403121561030b5761030a610169565b5b61031661012061011d565b9050600082013567ffffffffffffffff8111156103365761033561016e565b5b610342848285016101fa565b600083015250602061035684828501610249565b602083015250604061036a84828501610249565b604083015250606082013567ffffffffffffffff81111561038e5761038d61016e565b5b61039a848285016101fa565b606083015250608082013567ffffffffffffffff8111156103be576103bd61016e565b5b6103ca848285016101fa565b60808301525060a06103de848285016102a7565b60a08301525060c06103f2848285016102df565b60c08301525060e0610406848285016102df565b60e08301525061010082013567ffffffffffffffff81111561042b5761042a61016e565b5b610437848285016101fa565b6101008301525092915050565b600061045761045284610138565b61011d565b9050808382526020820190506020840283018581111561047a57610479610164565b5b835b818110156104c157803567ffffffffffffffff81111561049f5761049e6100a7565b5b8086016104ac89826102f4565b8552602085019450505060208101905061047c565b5050509392505050565b600082601f8301126104e0576104df6100a7565b5b81356104f0848260208601610444565b91505092915050565b60006020828403121561050f5761050e61009d565b5b600082013567ffffffffffffffff81111561052d5761052c6100a2565b5b610539848285016104cb565b91505092915050565b600082825260208201905092915050565b7f476976656e2073657269616c20494420697320616c72656164792074616b656e600082015250565b6000610589602083610542565b915061059482610553565b602082019050919050565b600060208201905081810360008301526105b88161057c565b905091905056fea26469706673582212205e576daeea45d9187b5c0ee9bb66627bb2f11e4e48aade871a603fb2b5df113e64736f6c63430008110033",
  "immutableReferences": {},
  "source": "//SPDX-License-Identifier: MIT\n\n\npragma solidity ^0.8.0;\n\nlibrary Product_Lib{\n  \n  struct Product {\n    string name;\n    uint256 manufacturingDate;\n    uint256 transferDate;\n    string currentOwner;\n    string licnseNumber;\n    address currentOwnerHash;\n    bool isVerified;\n    bool isPurchased;\n    string qrCode;\n  }\n}\n\ncontract Product_Exist {\n  function checkSerialNumber(Product_Lib.Product[] memory product) public pure {\n    require(product.length == 0, \"Given serial ID is already taken\");\n  }\n}\n\ncontract Product_Exist_For_Updating {\n  function exist(Product_Lib.Product[] memory product) public pure {\n    require(product.length != 0, \"This item is not in the List\");\n  }\n}\n\n\ncontract ProductVerification { \n    \n    uint256 counter;\n    address ownerHash;\n    \n    constructor() public {\n      require(msg.sender != address(0), \"no-owner-provided\");\n      ownerHash = msg.sender;\n      counter = 100000;\n    }\n     \n    mapping(uint => Product_Lib.Product[]) public products;\n    \n    event ErrorLogging(string reason);\n    function addProduct(string memory _name, uint256 _manufacturingDate, uint256 _transferDate, string memory _currentOwner, string memory _licenseNumber, bool _isVerified, bool _ispurchased, string memory _qrCode, address _currentOwnerHash ) public payable{\n        \n      Product_Exist exist = new Product_Exist();\n      \n      try exist.checkSerialNumber(products[counter]){\n        products[counter].push(Product_Lib.Product(_name, _manufacturingDate, _transferDate, _currentOwner, _licenseNumber,_currentOwnerHash, _isVerified, _ispurchased, _qrCode));\n        incrementcounter(); \n      } \n      catch Error(string memory reason){\n        emit  ErrorLogging(reason);\n      }\n    }\n    \n    event ErrorLoggingWhileUpdating(string reason);\n    function updateOwnership(uint256 index, uint256 _transferDate,string memory _updateOwner, string memory _licenseNumber, address _updateOwnerHash, bool _isVerified, bool _ispurchased) public payable{\n      Product_Lib.Product[] memory product = products[index];\n      \n      Product_Exist_For_Updating updating_allowed = new Product_Exist_For_Updating();\n\n      try updating_allowed.exist(product){\n        products[index].push(Product_Lib.Product(product[0].name, product[0].manufacturingDate, _transferDate, _updateOwner, _licenseNumber, _updateOwnerHash, _isVerified, _ispurchased, product[0].qrCode));\n      }\n\n      catch Error(string memory reason){\n        emit  ErrorLoggingWhileUpdating(reason);\n      }\n    }\n\n    function returnSize() public view returns(uint){\n      return counter;\n    }\n\n    function returnDetails(uint index) public view returns(Product_Lib.Product[] memory){\n      return products[index];\n    }\n\n    function currentOwner(uint index) public view returns(Product_Lib.Product memory){\n      Product_Lib.Product[] memory product = products[index];\n      uint256 len = product.length;\n      if(len!=0){\n        return product[len-1];\n      }else{\n        Product_Lib.Product memory dummyProduct;\n        return dummyProduct;\n      }\n    }\n    function incrementcounter() private{\n      counter++;\n    }\n}\n\n",
  "sourcePath": "/home/kaustubh/personal/fake_product/contracts/detection.sol",
  "compiler": {
    "name": "solc",
    "version": "0.8.17+commit.8df45f5f.Emscripten.clang"
  },
  "schemaVersion": "3.4.11",
  "updatedAt": "2023-01-12T13:35:41.080Z",
  "devdoc": {
    "kind": "dev",
    "methods": {},
    "version": 1
  },
  "userdoc": {
    "kind": "user",
    "methods": {},
    "version": 1
  }
}