{
  "contractName": "ProductVerification",
  "abi": [
    {
      "inputs": [],
      "stateMutability": "nonpayable",
      "type": "constructor"
    },
    {
      "anonymous": false,
      "inputs": [
        {
          "indexed": false,
          "internalType": "string",
          "name": "reason",
          "type": "string"
        }
      ],
      "name": "ErrorLogging",
      "type": "event"
    },
    {
      "anonymous": false,
      "inputs": [
        {
          "indexed": false,
          "internalType": "string",
          "name": "reason",
          "type": "string"
        }
      ],
      "name": "ErrorLoggingWhileUpdating",
      "type": "event"
    },
    {
      "inputs": [
        {
          "internalType": "uint256",
          "name": "",
          "type": "uint256"
        },
        {
          "internalType": "uint256",
          "name": "",
          "type": "uint256"
        }
      ],
      "name": "products",
      "outputs": [
        {
          "internalType": "string",
          "name": "name",
          "type": "string"
        },
        {
          "internalType": "uint256",
          "name": "manufacturingDate",
          "type": "uint256"
        },
        {
          "internalType": "uint256",
          "name": "transferDate",
          "type": "uint256"
        },
        {
          "internalType": "string",
          "name": "currentOwner",
          "type": "string"
        },
        {
          "internalType": "string",
          "name": "licnseNumber",
          "type": "string"
        },
        {
          "internalType": "address",
          "name": "currentOwnerHash",
          "type": "address"
        },
        {
          "internalType": "bool",
          "name": "isVerified",
          "type": "bool"
        },
        {
          "internalType": "bool",
          "name": "isPurchased",
          "type": "bool"
        },
        {
          "internalType": "string",
          "name": "qrCode",
          "type": "string"
        }
      ],
      "stateMutability": "view",
      "type": "function"
    },
    {
      "inputs": [
        {
          "internalType": "string",
          "name": "_name",
          "type": "string"
        },
        {
          "internalType": "uint256",
          "name": "_manufacturingDate",
          "type": "uint256"
        },
        {
          "internalType": "uint256",
          "name": "_transferDate",
          "type": "uint256"
        },
        {
          "internalType": "string",
          "name": "_currentOwner",
          "type": "string"
        },
        {
          "internalType": "string",
          "name": "_licenseNumber",
          "type": "string"
        },
        {
          "internalType": "bool",
          "name": "_isVerified",
          "type": "bool"
        },
        {
          "internalType": "bool",
          "name": "_ispurchased",
          "type": "bool"
        },
        {
          "internalType": "string",
          "name": "_qrCode",
          "type": "string"
        },
        {
          "internalType": "address",
          "name": "_currentOwnerHash",
          "type": "address"
        }
      ],
      "name": "addProduct",
      "outputs": [],
      "stateMutability": "payable",
      "type": "function"
    },
    {
      "inputs": [
        {
          "internalType": "uint256",
          "name": "index",
          "type": "uint256"
        },
        {
          "internalType": "uint256",
          "name": "_transferDate",
          "type": "uint256"
        },
        {
          "internalType": "string",
          "name": "_updateOwner",
          "type": "string"
        },
        {
          "internalType": "string",
          "name": "_licenseNumber",
          "type": "string"
        },
        {
          "internalType": "address",
          "name": "_updateOwnerHash",
          "type": "address"
        },
        {
          "internalType": "bool",
          "name": "_isVerified",
          "type": "bool"
        },
        {
          "internalType": "bool",
          "name": "_ispurchased",
          "type": "bool"
        }
      ],
      "name": "updateOwnership",
      "outputs": [],
      "stateMutability": "payable",
      "type": "function"
    },
    {
      "inputs": [],
      "name": "returnSize",
      "outputs": [
        {
          "internalType": "uint256",
          "name": "",
          "type": "uint256"
        }
      ],
      "stateMutability": "view",
      "type": "function"
    },
    {
      "inputs": [
        {
          "internalType": "uint256",
          "name": "index",
          "type": "uint256"
        }
      ],
      "name": "returnDetails",
      "outputs": [
        {
          "components": [
            {
              "internalType": "string",
              "name": "name",
              "type": "string"
            },
            {
              "internalType": "uint256",
              "name": "manufacturingDate",
              "type": "uint256"
            },
            {
              "internalType": "uint256",
              "name": "transferDate",
              "type": "uint256"
            },
            {
              "internalType": "string",
              "name": "currentOwner",
              "type": "string"
            },
            {
              "internalType": "string",
              "name": "licnseNumber",
              "type": "string"
            },
            {
              "internalType": "address",
              "name": "currentOwnerHash",
              "type": "address"
            },
            {
              "internalType": "bool",
              "name": "isVerified",
              "type": "bool"
            },
            {
              "internalType": "bool",
              "name": "isPurchased",
              "type": "bool"
            },
            {
              "internalType": "string",
              "name": "qrCode",
              "type": "string"
            }
          ],
          "internalType": "struct Product_Lib.Product[]",
          "name": "",
          "type": "tuple[]"
        }
      ],
      "stateMutability": "view",
      "type": "function"
    },
    {
      "inputs": [
        {
          "internalType": "uint256",
          "name": "index",
          "type": "uint256"
        }
      ],
      "name": "currentOwner",
      "outputs": [
        {
          "components": [
            {
              "internalType": "string",
              "name": "name",
              "type": "string"
            },
            {
              "internalType": "uint256",
              "name": "manufacturingDate",
              "type": "uint256"
            },
            {
              "internalType": "uint256",
              "name": "transferDate",
              "type": "uint256"
            },
            {
              "internalType": "string",
              "name": "currentOwner",
              "type": "string"
            },
            {
              "internalType": "string",
              "name": "licnseNumber",
              "type": "string"
            },
            {
              "internalType": "address",
              "name": "currentOwnerHash",
              "type": "address"
            },
            {
              "internalType": "bool",
              "name": "isVerified",
              "type": "bool"
            },
            {
              "internalType": "bool",
              "name": "isPurchased",
              "type": "bool"
            },
            {
              "internalType": "string",
              "name": "qrCode",
              "type": "string"
            }
          ],
          "internalType": "struct Product_Lib.Product",
          "name": "",
          "type": "tuple"
        }
      ],
      "stateMutability": "view",
      "type": "function"
    }
  ],
  "bytecode": "0x60806040523480156200001157600080fd5b50600073ffffffffffffffffffffffffffffffffffffffff163373ffffffffffffffffffffffffffffffffffffffff160362000084576040517f08c379a00000000000000000000000000000000000000000000000000000000081526004016200007b9062000136565b60405180910390fd5b33600160006101000a81548173ffffffffffffffffffffffffffffffffffffffff021916908373ffffffffffffffffffffffffffffffffffffffff160217905550620186a060008190555062000158565b600082825260208201905092915050565b7f6e6f2d6f776e65722d70726f7669646564000000000000000000000000000000600082015250565b60006200011e601183620000d5565b91506200012b82620000e6565b602082019050919050565b6000602082019050818103600083015262000151816200010f565b9050919050565b61326180620001686000396000f3fe6080604052600436106100555760003560e01c806307ed67851461005a5780635049818a146100765780635a19cc2e14610092578063a590fbdb146100cf578063def2a2f914610114578063e54511031461013f575b600080fd5b610074600480360381019061006f9190611725565b61017c565b005b610090600480360381019061008b919061185f565b610439565b005b34801561009e57600080fd5b506100b960048036038101906100b49190611939565b610a8d565b6040516100c69190611bae565b60405180910390f35b3480156100db57600080fd5b506100f660048036038101906100f19190611bd0565b610de8565b60405161010b99989796959493929190611c87565b60405180910390f35b34801561012057600080fd5b506101296110ad565b6040516101369190611d30565b60405180910390f35b34801561014b57600080fd5b5061016660048036038101906101619190611939565b6110b6565b6040516101739190611e25565b60405180910390f35b600060405161018a9061147f565b604051809103906000f0801580156101a6573d6000803e3d6000fd5b5090508073ffffffffffffffffffffffffffffffffffffffff16637c5df1cc60026000805481526020019081526020016000206040518263ffffffff1660e01b81526004016101f591906121bb565b60006040518083038186803b15801561020d57600080fd5b505afa92505050801561021e575060015b6102975761022a6121ea565b806308c379a003610286575061023e61220c565b806102495750610288565b7fdcbe72357183be3854887085e70fd914c4c1733a94106878f48e8ba069d8fabc81604051610278919061229c565b60405180910390a150610292565b505b3d6000803e3d6000fd5b61042d565b60026000805481526020019081526020016000206040518061012001604052808c81526020018b81526020018a81526020018981526020018881526020018473ffffffffffffffffffffffffffffffffffffffff1681526020018715158152602001861515815260200185815250908060018154018082558091505060019003906000526020600020906007020160009091909190915060008201518160000190816103439190612455565b506020820151816001015560408201518160020155606082015181600301908161036d9190612455565b5060808201518160040190816103839190612455565b5060a08201518160050160006101000a81548173ffffffffffffffffffffffffffffffffffffffff021916908373ffffffffffffffffffffffffffffffffffffffff16021790555060c08201518160050160146101000a81548160ff02191690831515021790555060e08201518160050160156101000a81548160ff0219169083151502179055506101008201518160060190816104219190612455565b50505061042c611466565b5b50505050505050505050565b600060026000898152602001908152602001600020805480602002602001604051908101604052809291908181526020016000905b828210156107895783829060005260206000209060070201604051806101200160405290816000820180546104a290611e96565b80601f01602080910402602001604051908101604052809291908181526020018280546104ce90611e96565b801561051b5780601f106104f05761010080835404028352916020019161051b565b820191906000526020600020905b8154815290600101906020018083116104fe57829003601f168201915b50505050508152602001600182015481526020016002820154815260200160038201805461054890611e96565b80601f016020809104026020016040519081016040528092919081815260200182805461057490611e96565b80156105c15780601f10610596576101008083540402835291602001916105c1565b820191906000526020600020905b8154815290600101906020018083116105a457829003601f168201915b505050505081526020016004820180546105da90611e96565b80601f016020809104026020016040519081016040528092919081815260200182805461060690611e96565b80156106535780601f1061062857610100808354040283529160200191610653565b820191906000526020600020905b81548152906001019060200180831161063657829003601f168201915b505050505081526020016005820160009054906101000a900473ffffffffffffffffffffffffffffffffffffffff1673ffffffffffffffffffffffffffffffffffffffff1673ffffffffffffffffffffffffffffffffffffffff1681526020016005820160149054906101000a900460ff161515151581526020016005820160159054906101000a900460ff161515151581526020016006820180546106f890611e96565b80601f016020809104026020016040519081016040528092919081815260200182805461072490611e96565b80156107715780601f1061074657610100808354040283529160200191610771565b820191906000526020600020905b81548152906001019060200180831161075457829003601f168201915b5050505050815250508152602001906001019061046e565b505050509050600060405161079d9061148c565b604051809103906000f0801580156107b9573d6000803e3d6000fd5b5090508073ffffffffffffffffffffffffffffffffffffffff166359a71aea836040518263ffffffff1660e01b81526004016107f59190611bae565b60006040518083038186803b15801561080d57600080fd5b505afa92505050801561081e575060015b6108975761082a6121ea565b806308c379a003610886575061083e61220c565b806108495750610888565b7f614bff9c72d0eafafa0ec68b42e972173e16062f1c63e16ee4425368f370815481604051610878919061229c565b60405180910390a150610892565b505b3d6000803e3d6000fd5b610a82565b600260008a8152602001908152602001600020604051806101200160405280846000815181106108ca576108c9612527565b5b6020026020010151600001518152602001846000815181106108ef576108ee612527565b5b60200260200101516020015181526020018a81526020018981526020018881526020018773ffffffffffffffffffffffffffffffffffffffff168152602001861515815260200185151581526020018460008151811061095257610951612527565b5b60200260200101516101000151815250908060018154018082558091505060019003906000526020600020906007020160009091909190915060008201518160000190816109a09190612455565b50602082015181600101556040820151816002015560608201518160030190816109ca9190612455565b5060808201518160040190816109e09190612455565b5060a08201518160050160006101000a81548173ffffffffffffffffffffffffffffffffffffffff021916908373ffffffffffffffffffffffffffffffffffffffff16021790555060c08201518160050160146101000a81548160ff02191690831515021790555060e08201518160050160156101000a81548160ff021916908315150217905550610100820151816006019081610a7e9190612455565b5050505b505050505050505050565b606060026000838152602001908152602001600020805480602002602001604051908101604052809291908181526020016000905b82821015610ddd578382906000526020600020906007020160405180610120016040529081600082018054610af690611e96565b80601f0160208091040260200160405190810160405280929190818152602001828054610b2290611e96565b8015610b6f5780601f10610b4457610100808354040283529160200191610b6f565b820191906000526020600020905b815481529060010190602001808311610b5257829003601f168201915b505050505081526020016001820154815260200160028201548152602001600382018054610b9c90611e96565b80601f0160208091040260200160405190810160405280929190818152602001828054610bc890611e96565b8015610c155780601f10610bea57610100808354040283529160200191610c15565b820191906000526020600020905b815481529060010190602001808311610bf857829003601f168201915b50505050508152602001600482018054610c2e90611e96565b80601f0160208091040260200160405190810160405280929190818152602001828054610c5a90611e96565b8015610ca75780601f10610c7c57610100808354040283529160200191610ca7565b820191906000526020600020905b815481529060010190602001808311610c8a57829003601f168201915b505050505081526020016005820160009054906101000a900473ffffffffffffffffffffffffffffffffffffffff1673ffffffffffffffffffffffffffffffffffffffff1673ffffffffffffffffffffffffffffffffffffffff1681526020016005820160149054906101000a900460ff161515151581526020016005820160159054906101000a900460ff16151515158152602001600682018054610d4c90611e96565b80601f0160208091040260200160405190810160405280929190818152602001828054610d7890611e96565b8015610dc55780601f10610d9a57610100808354040283529160200191610dc5565b820191906000526020600020905b815481529060010190602001808311610da857829003601f168201915b50505050508152505081526020019060010190610ac2565b505050509050919050565b60026020528160005260406000208181548110610e0457600080fd5b906000526020600020906007020160009150915050806000018054610e2890611e96565b80601f0160208091040260200160405190810160405280929190818152602001828054610e5490611e96565b8015610ea15780601f10610e7657610100808354040283529160200191610ea1565b820191906000526020600020905b815481529060010190602001808311610e8457829003601f168201915b505050505090806001015490806002015490806003018054610ec290611e96565b80601f0160208091040260200160405190810160405280929190818152602001828054610eee90611e96565b8015610f3b5780601f10610f1057610100808354040283529160200191610f3b565b820191906000526020600020905b815481529060010190602001808311610f1e57829003601f168201915b505050505090806004018054610f5090611e96565b80601f0160208091040260200160405190810160405280929190818152602001828054610f7c90611e96565b8015610fc95780601f10610f9e57610100808354040283529160200191610fc9565b820191906000526020600020905b815481529060010190602001808311610fac57829003601f168201915b5050505050908060050160009054906101000a900473ffffffffffffffffffffffffffffffffffffffff16908060050160149054906101000a900460ff16908060050160159054906101000a900460ff169080600601805461102a90611e96565b80601f016020809104026020016040519081016040528092919081815260200182805461105690611e96565b80156110a35780601f10611078576101008083540402835291602001916110a3565b820191906000526020600020905b81548152906001019060200180831161108657829003601f168201915b5050505050905089565b60008054905090565b6110be611499565b600060026000848152602001908152602001600020805480602002602001604051908101604052809291908181526020016000905b8282101561140e57838290600052602060002090600702016040518061012001604052908160008201805461112790611e96565b80601f016020809104026020016040519081016040528092919081815260200182805461115390611e96565b80156111a05780601f10611175576101008083540402835291602001916111a0565b820191906000526020600020905b81548152906001019060200180831161118357829003601f168201915b5050505050815260200160018201548152602001600282015481526020016003820180546111cd90611e96565b80601f01602080910402602001604051908101604052809291908181526020018280546111f990611e96565b80156112465780601f1061121b57610100808354040283529160200191611246565b820191906000526020600020905b81548152906001019060200180831161122957829003601f168201915b5050505050815260200160048201805461125f90611e96565b80601f016020809104026020016040519081016040528092919081815260200182805461128b90611e96565b80156112d85780601f106112ad576101008083540402835291602001916112d8565b820191906000526020600020905b8154815290600101906020018083116112bb57829003601f168201915b505050505081526020016005820160009054906101000a900473ffffffffffffffffffffffffffffffffffffffff1673ffffffffffffffffffffffffffffffffffffffff1673ffffffffffffffffffffffffffffffffffffffff1681526020016005820160149054906101000a900460ff161515151581526020016005820160159054906101000a900460ff1615151515815260200160068201805461137d90611e96565b80601f01602080910402602001604051908101604052809291908181526020018280546113a990611e96565b80156113f65780601f106113cb576101008083540402835291602001916113f6565b820191906000526020600020905b8154815290600101906020018083116113d957829003601f168201915b505050505081525050815260200190600101906110f3565b5050505090506000815190506000811461145257816001826114309190612585565b8151811061144157611440612527565b5b602002602001015192505050611461565b61145a611499565b8093505050505b919050565b600080815480929190611478906125b9565b9190505550565b6106158061260283390190565b61061580612c1783390190565b6040518061012001604052806060815260200160008152602001600081526020016060815260200160608152602001600073ffffffffffffffffffffffffffffffffffffffff168152602001600015158152602001600015158152602001606081525090565b6000604051905090565b600080fd5b600080fd5b600080fd5b600080fd5b6000601f19601f8301169050919050565b7f4e487b7100000000000000000000000000000000000000000000000000000000600052604160045260246000fd5b6115668261151d565b810181811067ffffffffffffffff821117156115855761158461152e565b5b80604052505050565b60006115986114ff565b90506115a4828261155d565b919050565b600067ffffffffffffffff8211156115c4576115c361152e565b5b6115cd8261151d565b9050602081019050919050565b82818337600083830152505050565b60006115fc6115f7846115a9565b61158e565b90508281526020810184848401111561161857611617611518565b5b6116238482856115da565b509392505050565b600082601f8301126116405761163f611513565b5b81356116508482602086016115e9565b91505092915050565b6000819050919050565b61166c81611659565b811461167757600080fd5b50565b60008135905061168981611663565b92915050565b60008115159050919050565b6116a48161168f565b81146116af57600080fd5b50565b6000813590506116c18161169b565b92915050565b600073ffffffffffffffffffffffffffffffffffffffff82169050919050565b60006116f2826116c7565b9050919050565b611702816116e7565b811461170d57600080fd5b50565b60008135905061171f816116f9565b92915050565b60008060008060008060008060006101208a8c03121561174857611747611509565b5b60008a013567ffffffffffffffff8111156117665761176561150e565b5b6117728c828d0161162b565b99505060206117838c828d0161167a565b98505060406117948c828d0161167a565b97505060608a013567ffffffffffffffff8111156117b5576117b461150e565b5b6117c18c828d0161162b565b96505060808a013567ffffffffffffffff8111156117e2576117e161150e565b5b6117ee8c828d0161162b565b95505060a06117ff8c828d016116b2565b94505060c06118108c828d016116b2565b93505060e08a013567ffffffffffffffff8111156118315761183061150e565b5b61183d8c828d0161162b565b92505061010061184f8c828d01611710565b9150509295985092959850929598565b600080600080600080600060e0888a03121561187e5761187d611509565b5b600061188c8a828b0161167a565b975050602061189d8a828b0161167a565b965050604088013567ffffffffffffffff8111156118be576118bd61150e565b5b6118ca8a828b0161162b565b955050606088013567ffffffffffffffff8111156118eb576118ea61150e565b5b6118f78a828b0161162b565b94505060806119088a828b01611710565b93505060a06119198a828b016116b2565b92505060c061192a8a828b016116b2565b91505092959891949750929550565b60006020828403121561194f5761194e611509565b5b600061195d8482850161167a565b91505092915050565b600081519050919050565b600082825260208201905092915050565b6000819050602082019050919050565b600081519050919050565b600082825260208201905092915050565b60005b838110156119cc5780820151818401526020810190506119b1565b60008484015250505050565b60006119e382611992565b6119ed818561199d565b93506119fd8185602086016119ae565b611a068161151d565b840191505092915050565b611a1a81611659565b82525050565b611a29816116e7565b82525050565b611a388161168f565b82525050565b6000610120830160008301518482036000860152611a5c82826119d8565b9150506020830151611a716020860182611a11565b506040830151611a846040860182611a11565b5060608301518482036060860152611a9c82826119d8565b91505060808301518482036080860152611ab682826119d8565b91505060a0830151611acb60a0860182611a20565b5060c0830151611ade60c0860182611a2f565b5060e0830151611af160e0860182611a2f565b50610100830151848203610100860152611b0b82826119d8565b9150508091505092915050565b6000611b248383611a3e565b905092915050565b6000602082019050919050565b6000611b4482611966565b611b4e8185611971565b935083602082028501611b6085611982565b8060005b85811015611b9c5784840389528151611b7d8582611b18565b9450611b8883611b2c565b925060208a01995050600181019050611b64565b50829750879550505050505092915050565b60006020820190508181036000830152611bc88184611b39565b905092915050565b60008060408385031215611be757611be6611509565b5b6000611bf58582860161167a565b9250506020611c068582860161167a565b9150509250929050565b600082825260208201905092915050565b6000611c2c82611992565b611c368185611c10565b9350611c468185602086016119ae565b611c4f8161151d565b840191505092915050565b611c6381611659565b82525050565b611c72816116e7565b82525050565b611c818161168f565b82525050565b6000610120820190508181036000830152611ca2818c611c21565b9050611cb1602083018b611c5a565b611cbe604083018a611c5a565b8181036060830152611cd08189611c21565b90508181036080830152611ce48188611c21565b9050611cf360a0830187611c69565b611d0060c0830186611c78565b611d0d60e0830185611c78565b818103610100830152611d208184611c21565b90509a9950505050505050505050565b6000602082019050611d456000830184611c5a565b92915050565b6000610120830160008301518482036000860152611d6982826119d8565b9150506020830151611d7e6020860182611a11565b506040830151611d916040860182611a11565b5060608301518482036060860152611da982826119d8565b91505060808301518482036080860152611dc382826119d8565b91505060a0830151611dd860a0860182611a20565b5060c0830151611deb60c0860182611a2f565b5060e0830151611dfe60e0860182611a2f565b50610100830151848203610100860152611e1882826119d8565b9150508091505092915050565b60006020820190508181036000830152611e3f8184611d4b565b905092915050565b600081549050919050565b60008190508160005260206000209050919050565b7f4e487b7100000000000000000000000000000000000000000000000000000000600052602260045260246000fd5b60006002820490506001821680611eae57607f821691505b602082108103611ec157611ec0611e67565b5b50919050565b60008190508160005260206000209050919050565b60008154611ee981611e96565b611ef3818661199d565b94506001821660008114611f0e5760018114611f2457611f57565b60ff198316865281151560200286019350611f57565b611f2d85611ec7565b60005b83811015611f4f57815481890152600182019150602081019050611f30565b808801955050505b50505092915050565b60008160001c9050919050565b6000819050919050565b6000611f8a611f8583611f60565b611f6d565b9050919050565b600073ffffffffffffffffffffffffffffffffffffffff82169050919050565b6000611fc4611fbf83611f60565b611f91565b9050919050565b60008160a01c9050919050565b600060ff82169050919050565b6000611ff8611ff383611fcb565b611fd8565b9050919050565b60008160a81c9050919050565b600061201f61201a83611fff565b611fd8565b9050919050565b60006101208301600080840185830360008701526120448382611edc565b9250506001840154905061205781611f77565b6120646020870182611a11565b506002840154905061207581611f77565b6120826040870182611a11565b506003840185830360608701526120998382611edc565b9250506004840185830360808701526120b28382611edc565b925050600584015490506120c581611fb1565b6120d260a0870182611a20565b506120dc81611fe5565b6120e960c0870182611a2f565b506120f38161200c565b61210060e0870182611a2f565b50600684018583036101008701526121188382611edc565b925050819250505092915050565b60006121328383612026565b905092915050565b6000600782019050919050565b600061215282611e47565b61215c8185611971565b93508360208202850161216e85611e52565b8060005b858110156121a95784840389528161218a8582612126565b94506121958361213a565b925060208a01995050600181019050612172565b50829750879550505050505092915050565b600060208201905081810360008301526121d58184612147565b905092915050565b60008160e01c9050919050565b600060033d11156122095760046000803e6122066000516121dd565b90505b90565b600060443d106122995761221e6114ff565b60043d036004823e80513d602482011167ffffffffffffffff82111715612246575050612299565b808201805167ffffffffffffffff8111156122645750505050612299565b80602083010160043d038501811115612281575050505050612299565b6122908260200185018661155d565b82955050505050505b90565b600060208201905081810360008301526122b68184611c21565b905092915050565b60006020601f8301049050919050565b600082821b905092915050565b60006008830261230b7fffffffffffffffffffffffffffffffffffffffffffffffffffffffffffffffff826122ce565b61231586836122ce565b95508019841693508086168417925050509392505050565b6000819050919050565b600061235261234d61234884611659565b61232d565b611659565b9050919050565b6000819050919050565b61236c83612337565b61238061237882612359565b8484546122db565b825550505050565b600090565b612395612388565b6123a0818484612363565b505050565b5b818110156123c4576123b960008261238d565b6001810190506123a6565b5050565b601f821115612409576123da81611ec7565b6123e3846122be565b810160208510156123f2578190505b6124066123fe856122be565b8301826123a5565b50505b505050565b600082821c905092915050565b600061242c6000198460080261240e565b1980831691505092915050565b6000612445838361241b565b9150826002028217905092915050565b61245e82611992565b67ffffffffffffffff8111156124775761247661152e565b5b6124818254611e96565b61248c8282856123c8565b600060209050601f8311600181146124bf57600084156124ad578287015190505b6124b78582612439565b86555061251f565b601f1984166124cd86611ec7565b60005b828110156124f5578489015182556001820191506020850194506020810190506124d0565b86831015612512578489015161250e601f89168261241b565b8355505b6001600288020188555050505b505050505050565b7f4e487b7100000000000000000000000000000000000000000000000000000000600052603260045260246000fd5b7f4e487b7100000000000000000000000000000000000000000000000000000000600052601160045260246000fd5b600061259082611659565b915061259b83611659565b92508282039050818111156125b3576125b2612556565b5b92915050565b60006125c482611659565b91507fffffffffffffffffffffffffffffffffffffffffffffffffffffffffffffffff82036125f6576125f5612556565b5b60018201905091905056fe608060405234801561001057600080fd5b506105f5806100206000396000f3fe608060405234801561001057600080fd5b506004361061002b5760003560e01c80637c5df1cc14610030575b600080fd5b61004a600480360381019061004591906104f9565b61004c565b005b6000815114610090576040517f08c379a00000000000000000000000000000000000000000000000000000000081526004016100879061059f565b60405180910390fd5b50565b6000604051905090565b600080fd5b600080fd5b600080fd5b6000601f19601f8301169050919050565b7f4e487b7100000000000000000000000000000000000000000000000000000000600052604160045260246000fd5b6100f5826100ac565b810181811067ffffffffffffffff82111715610114576101136100bd565b5b80604052505050565b6000610127610093565b905061013382826100ec565b919050565b600067ffffffffffffffff821115610153576101526100bd565b5b602082029050602081019050919050565b600080fd5b600080fd5b600080fd5b600080fd5b600067ffffffffffffffff821115610193576101926100bd565b5b61019c826100ac565b9050602081019050919050565b82818337600083830152505050565b60006101cb6101c684610178565b61011d565b9050828152602081018484840111156101e7576101e6610173565b5b6101f28482856101a9565b509392505050565b600082601f83011261020f5761020e6100a7565b5b813561021f8482602086016101b8565b91505092915050565b6000819050919050565b61023b81610228565b811461024657600080fd5b50565b60008135905061025881610232565b92915050565b600073ffffffffffffffffffffffffffffffffffffffff82169050919050565b60006102898261025e565b9050919050565b6102998161027e565b81146102a457600080fd5b50565b6000813590506102b681610290565b92915050565b60008115159050919050565b6102d1816102bc565b81146102dc57600080fd5b50565b6000813590506102ee816102c8565b92915050565b6000610120828403121561030b5761030a610169565b5b61031661012061011d565b9050600082013567ffffffffffffffff8111156103365761033561016e565b5b610342848285016101fa565b600083015250602061035684828501610249565b602083015250604061036a84828501610249565b604083015250606082013567ffffffffffffffff81111561038e5761038d61016e565b5b61039a848285016101fa565b606083015250608082013567ffffffffffffffff8111156103be576103bd61016e565b5b6103ca848285016101fa565b60808301525060a06103de848285016102a7565b60a08301525060c06103f2848285016102df565b60c08301525060e0610406848285016102df565b60e08301525061010082013567ffffffffffffffff81111561042b5761042a61016e565b5b610437848285016101fa565b6101008301525092915050565b600061045761045284610138565b61011d565b9050808382526020820190506020840283018581111561047a57610479610164565b5b835b818110156104c157803567ffffffffffffffff81111561049f5761049e6100a7565b5b8086016104ac89826102f4565b8552602085019450505060208101905061047c565b5050509392505050565b600082601f8301126104e0576104df6100a7565b5b81356104f0848260208601610444565b91505092915050565b60006020828403121561050f5761050e61009d565b5b600082013567ffffffffffffffff81111561052d5761052c6100a2565b5b610539848285016104cb565b91505092915050565b600082825260208201905092915050565b7f476976656e2073657269616c20494420697320616c72656164792074616b656e600082015250565b6000610589602083610542565b915061059482610553565b602082019050919050565b600060208201905081810360008301526105b88161057c565b905091905056fea26469706673582212205e576daeea45d9187b5c0ee9bb66627bb2f11e4e48aade871a603fb2b5df113e64736f6c63430008110033608060405234801561001057600080fd5b506105f5806100206000396000f3fe608060405234801561001057600080fd5b506004361061002b5760003560e01c806359a71aea14610030575b600080fd5b61004a600480360381019061004591906104f9565b61004c565b005b6000815103610090576040517f08c379a00000000000000000000000000000000000000000000000000000000081526004016100879061059f565b60405180910390fd5b50565b6000604051905090565b600080fd5b600080fd5b600080fd5b6000601f19601f8301169050919050565b7f4e487b7100000000000000000000000000000000000000000000000000000000600052604160045260246000fd5b6100f5826100ac565b810181811067ffffffffffffffff82111715610114576101136100bd565b5b80604052505050565b6000610127610093565b905061013382826100ec565b919050565b600067ffffffffffffffff821115610153576101526100bd565b5b602082029050602081019050919050565b600080fd5b600080fd5b600080fd5b600080fd5b600067ffffffffffffffff821115610193576101926100bd565b5b61019c826100ac565b9050602081019050919050565b82818337600083830152505050565b60006101cb6101c684610178565b61011d565b9050828152602081018484840111156101e7576101e6610173565b5b6101f28482856101a9565b509392505050565b600082601f83011261020f5761020e6100a7565b5b813561021f8482602086016101b8565b91505092915050565b6000819050919050565b61023b81610228565b811461024657600080fd5b50565b60008135905061025881610232565b92915050565b600073ffffffffffffffffffffffffffffffffffffffff82169050919050565b60006102898261025e565b9050919050565b6102998161027e565b81146102a457600080fd5b50565b6000813590506102b681610290565b92915050565b60008115159050919050565b6102d1816102bc565b81146102dc57600080fd5b50565b6000813590506102ee816102c8565b92915050565b6000610120828403121561030b5761030a610169565b5b61031661012061011d565b9050600082013567ffffffffffffffff8111156103365761033561016e565b5b610342848285016101fa565b600083015250602061035684828501610249565b602083015250604061036a84828501610249565b604083015250606082013567ffffffffffffffff81111561038e5761038d61016e565b5b61039a848285016101fa565b606083015250608082013567ffffffffffffffff8111156103be576103bd61016e565b5b6103ca848285016101fa565b60808301525060a06103de848285016102a7565b60a08301525060c06103f2848285016102df565b60c08301525060e0610406848285016102df565b60e08301525061010082013567ffffffffffffffff81111561042b5761042a61016e565b5b610437848285016101fa565b6101008301525092915050565b600061045761045284610138565b61011d565b9050808382526020820190506020840283018581111561047a57610479610164565b5b835b818110156104c157803567ffffffffffffffff81111561049f5761049e6100a7565b5b8086016104ac89826102f4565b8552602085019450505060208101905061047c565b5050509392505050565b600082601f8301126104e0576104df6100a7565b5b81356104f0848260208601610444565b91505092915050565b60006020828403121561050f5761050e61009d565b5b600082013567ffffffffffffffff81111561052d5761052c6100a2565b5b610539848285016104cb565b91505092915050565b600082825260208201905092915050565b7f54686973206974656d206973206e6f7420696e20746865204c69737400000000600082015250565b6000610589601c83610542565b915061059482610553565b602082019050919050565b600060208201905081810360008301526105b88161057c565b905091905056fea26469706673582212200679fdd99326c47a037a8a7f09cf863d92c02bbe6a007d9afb41029e72e0537364736f6c63430008110033a26469706673582212202a4902614ca3a4d6822d332c787233aaee89e200193f4459019decd0b8de13a364736f6c63430008110033",
  "immutableReferences": {},
  "source": "//SPDX-License-Identifier: MIT\n\n\npragma solidity ^0.8.0;\n\nlibrary Product_Lib{\n  \n  struct Product {\n    string name;\n    uint256 manufacturingDate;\n    uint256 transferDate;\n    string currentOwner;\n    string licnseNumber;\n    address currentOwnerHash;\n    bool isVerified;\n    bool isPurchased;\n    string qrCode;\n  }\n}\n\ncontract Product_Exist {\n  function checkSerialNumber(Product_Lib.Product[] memory product) public pure {\n    require(product.length == 0, \"Given serial ID is already taken\");\n  }\n}\n\ncontract Product_Exist_For_Updating {\n  function exist(Product_Lib.Product[] memory product) public pure {\n    require(product.length != 0, \"This item is not in the List\");\n  }\n}\n\n\ncontract ProductVerification { \n    \n    uint256 counter;\n    address ownerHash;\n    \n    constructor() public {\n      require(msg.sender != address(0), \"no-owner-provided\");\n      ownerHash = msg.sender;\n      counter = 100000;\n    }\n     \n    mapping(uint => Product_Lib.Product[]) public products;\n    \n    event ErrorLogging(string reason);\n    function addProduct(string memory _name, uint256 _manufacturingDate, uint256 _transferDate, string memory _currentOwner, string memory _licenseNumber, bool _isVerified, bool _ispurchased, string memory _qrCode, address _currentOwnerHash ) public payable{\n        \n      Product_Exist exist = new Product_Exist();\n      \n      try exist.checkSerialNumber(products[counter]){\n        products[counter].push(Product_Lib.Product(_name, _manufacturingDate, _transferDate, _currentOwner, _licenseNumber,_currentOwnerHash, _isVerified, _ispurchased, _qrCode));\n        incrementcounter(); \n      } \n      catch Error(string memory reason){\n        emit  ErrorLogging(reason);\n      }\n    }\n    \n    event ErrorLoggingWhileUpdating(string reason);\n    function updateOwnership(uint256 index, uint256 _transferDate,string memory _updateOwner, string memory _licenseNumber, address _updateOwnerHash, bool _isVerified, bool _ispurchased) public payable{\n      Product_Lib.Product[] memory product = products[index];\n      \n      Product_Exist_For_Updating updating_allowed = new Product_Exist_For_Updating();\n\n      try updating_allowed.exist(product){\n        products[index].push(Product_Lib.Product(product[0].name, product[0].manufacturingDate, _transferDate, _updateOwner, _licenseNumber, _updateOwnerHash, _isVerified, _ispurchased, product[0].qrCode));\n      }\n\n      catch Error(string memory reason){\n        emit  ErrorLoggingWhileUpdating(reason);\n      }\n    }\n\n    function returnSize() public view returns(uint){\n      return counter;\n    }\n\n    function returnDetails(uint index) public view returns(Product_Lib.Product[] memory){\n      return products[index];\n    }\n\n    function currentOwner(uint index) public view returns(Product_Lib.Product memory){\n      Product_Lib.Product[] memory product = products[index];\n      uint256 len = product.length;\n      if(len!=0){\n        return product[len-1];\n      }else{\n        Product_Lib.Product memory dummyProduct;\n        return dummyProduct;\n      }\n    }\n    function incrementcounter() private{\n      counter++;\n    }\n}\n\n",
  "sourcePath": "/home/kaustubh/personal/fake_product/contracts/detection.sol",
  "compiler": {
    "name": "solc",
    "version": "0.8.17+commit.8df45f5f.Emscripten.clang"
  },
  "schemaVersion": "3.4.11",
  "updatedAt": "2023-01-12T13:35:41.066Z",
  "devdoc": {
    "kind": "dev",
    "methods": {},
    "version": 1
  },
  "userdoc": {
    "kind": "user",
    "methods": {},
    "version": 1
  }
}